{
  "_format": "hh-sol-artifact-1",
  "contractName": "CoinFlip",
  "sourceName": "contracts/CoinFlip.sol",
  "abi": [
    {
      "inputs": [],
      "stateMutability": "nonpayable",
      "type": "constructor"
    },
    {
      "anonymous": false,
      "inputs": [
        {
          "indexed": true,
          "internalType": "address",
          "name": "owner",
          "type": "address"
        },
        {
          "indexed": false,
          "internalType": "uint256",
          "name": "amount",
          "type": "uint256"
        }
      ],
      "name": "FundsWithdrawn",
      "type": "event"
    },
    {
      "anonymous": false,
      "inputs": [
        {
          "indexed": true,
          "internalType": "uint256",
          "name": "gameId",
          "type": "uint256"
        },
        {
          "indexed": true,
          "internalType": "address",
          "name": "player",
          "type": "address"
        },
        {
          "indexed": false,
          "internalType": "uint256",
          "name": "betAmount",
          "type": "uint256"
        },
        {
          "indexed": false,
          "internalType": "bool",
          "name": "choice",
          "type": "bool"
        }
      ],
      "name": "GameCreated",
      "type": "event"
    },
    {
      "anonymous": false,
      "inputs": [
        {
          "indexed": true,
          "internalType": "uint256",
          "name": "gameId",
          "type": "uint256"
        },
        {
          "indexed": true,
          "internalType": "address",
          "name": "player",
          "type": "address"
        },
        {
          "indexed": false,
          "internalType": "bool",
          "name": "won",
          "type": "bool"
        },
        {
          "indexed": false,
          "internalType": "uint256",
          "name": "payout",
          "type": "uint256"
        }
      ],
      "name": "GameResolved",
      "type": "event"
    },
    {
      "anonymous": false,
      "inputs": [
        {
          "indexed": true,
          "internalType": "address",
          "name": "player",
          "type": "address"
        },
        {
          "indexed": false,
          "internalType": "uint256",
          "name": "amount",
          "type": "uint256"
        }
      ],
      "name": "PlayerWithdrew",
      "type": "event"
    },
    {
      "inputs": [
        {
          "internalType": "bool",
          "name": "choice",
          "type": "bool"
        }
      ],
      "name": "flipCoin",
      "outputs": [
        {
          "internalType": "uint256",
          "name": "",
          "type": "uint256"
        }
      ],
      "stateMutability": "payable",
      "type": "function"
    },
    {
      "inputs": [],
      "name": "gameCounter",
      "outputs": [
        {
          "internalType": "uint256",
          "name": "",
          "type": "uint256"
        }
      ],
      "stateMutability": "view",
      "type": "function"
    },
    {
      "inputs": [
        {
          "internalType": "uint256",
          "name": "",
          "type": "uint256"
        }
      ],
      "name": "games",
      "outputs": [
        {
          "internalType": "address",
          "name": "player",
          "type": "address"
        },
        {
          "internalType": "uint256",
          "name": "betAmount",
          "type": "uint256"
        },
        {
          "internalType": "bool",
          "name": "choice",
          "type": "bool"
        },
        {
          "internalType": "bool",
          "name": "isResolved",
          "type": "bool"
        },
        {
          "internalType": "bool",
          "name": "won",
          "type": "bool"
        },
        {
          "internalType": "uint256",
          "name": "timestamp",
          "type": "uint256"
        }
      ],
      "stateMutability": "view",
      "type": "function"
    },
    {
      "inputs": [],
      "name": "getContractBalance",
      "outputs": [
        {
          "internalType": "uint256",
          "name": "",
          "type": "uint256"
        }
      ],
      "stateMutability": "view",
      "type": "function"
    },
    {
      "inputs": [
        {
          "internalType": "uint256",
          "name": "gameId",
          "type": "uint256"
        }
      ],
      "name": "getGame",
      "outputs": [
        {
          "components": [
            {
              "internalType": "address",
              "name": "player",
              "type": "address"
            },
            {
              "internalType": "uint256",
              "name": "betAmount",
              "type": "uint256"
            },
            {
              "internalType": "bool",
              "name": "choice",
              "type": "bool"
            },
            {
              "internalType": "bool",
              "name": "isResolved",
              "type": "bool"
            },
            {
              "internalType": "bool",
              "name": "won",
              "type": "bool"
            },
            {
              "internalType": "uint256",
              "name": "timestamp",
              "type": "uint256"
            }
          ],
          "internalType": "struct CoinFlip.Game",
          "name": "",
          "type": "tuple"
        }
      ],
      "stateMutability": "view",
      "type": "function"
    },
    {
      "inputs": [
        {
          "internalType": "address",
          "name": "player",
          "type": "address"
        }
      ],
      "name": "getPlayerBalance",
      "outputs": [
        {
          "internalType": "uint256",
          "name": "",
          "type": "uint256"
        }
      ],
      "stateMutability": "view",
      "type": "function"
    },
    {
      "inputs": [
        {
          "internalType": "address",
          "name": "player",
          "type": "address"
        }
      ],
      "name": "getPlayerGames",
      "outputs": [
        {
          "internalType": "uint256[]",
          "name": "",
          "type": "uint256[]"
        }
      ],
      "stateMutability": "view",
      "type": "function"
    },
    {
      "inputs": [],
      "name": "houseEdge",
      "outputs": [
        {
          "internalType": "uint256",
          "name": "",
          "type": "uint256"
        }
      ],
      "stateMutability": "view",
      "type": "function"
    },
    {
      "inputs": [],
      "name": "maxBet",
      "outputs": [
        {
          "internalType": "uint256",
          "name": "",
          "type": "uint256"
        }
      ],
      "stateMutability": "view",
      "type": "function"
    },
    {
      "inputs": [],
      "name": "minBet",
      "outputs": [
        {
          "internalType": "uint256",
          "name": "",
          "type": "uint256"
        }
      ],
      "stateMutability": "view",
      "type": "function"
    },
    {
      "inputs": [],
      "name": "owner",
      "outputs": [
        {
          "internalType": "address",
          "name": "",
          "type": "address"
        }
      ],
      "stateMutability": "view",
      "type": "function"
    },
    {
      "inputs": [
        {
          "internalType": "address",
          "name": "",
          "type": "address"
        }
      ],
      "name": "playerBalances",
      "outputs": [
        {
          "internalType": "uint256",
          "name": "",
          "type": "uint256"
        }
      ],
      "stateMutability": "view",
      "type": "function"
    },
    {
      "inputs": [
        {
          "internalType": "uint256",
          "name": "_minBet",
          "type": "uint256"
        },
        {
          "internalType": "uint256",
          "name": "_maxBet",
          "type": "uint256"
        }
      ],
      "name": "setBetLimits",
      "outputs": [],
      "stateMutability": "nonpayable",
      "type": "function"
    },
    {
      "inputs": [
        {
          "internalType": "uint256",
          "name": "_houseEdge",
          "type": "uint256"
        }
      ],
      "name": "setHouseEdge",
      "outputs": [],
      "stateMutability": "nonpayable",
      "type": "function"
    },
    {
      "inputs": [],
      "name": "withdrawFunds",
      "outputs": [],
      "stateMutability": "nonpayable",
      "type": "function"
    },
    {
      "inputs": [],
      "name": "withdrawPlayerBalance",
      "outputs": [],
      "stateMutability": "nonpayable",
      "type": "function"
    },
    {
      "stateMutability": "payable",
      "type": "receive"
    }
  ],
  "bytecode": "0x6080604052600260015566038d7ea4c680006002556658d15e1762800060035534801561002b57600080fd5b50600080546001600160a01b03191633179055610e748061004d6000396000f3fe6080604052600436106100f75760003560e01c80637b38314c1161008a578063a2f77bcc11610059578063a2f77bcc1461030b578063d325101a14610421578063d667dcd714610436578063e2734c931461044c57600080fd5b80637b38314c1461027d5780637b8ff38f146102aa5780638da5cb5b146102bd5780639619367d146102f557600080fd5b80632e5b2168116100c65780632e5b2168146102145780636cd0f1021461022a5780636f9fb98a1461024a5780637687dd491461025d57600080fd5b8063117a5b9014610103578063129daf84146101ac57806324600fc3146101d95780632e0be39a146101f057600080fd5b366100fe57005b600080fd5b34801561010f57600080fd5b5061016861011e366004610c57565b60046020526000908152604090208054600182015460028301546003909301546001600160a01b0390921692909160ff808316926101008104821692620100009091049091169086565b604080516001600160a01b03909716875260208701959095529215159385019390935215156060840152901515608083015260a082015260c0015b60405180910390f35b3480156101b857600080fd5b506101cc6101c7366004610c70565b610482565b6040516101a39190610c99565b3480156101e557600080fd5b506101ee6105df565b005b3480156101fc57600080fd5b5061020660065481565b6040519081526020016101a3565b34801561022057600080fd5b5061020660035481565b34801561023657600080fd5b506101ee610245366004610c57565b6106d7565b34801561025657600080fd5b5047610206565b34801561026957600080fd5b506101ee610278366004610cdd565b61074d565b34801561028957600080fd5b50610206610298366004610c70565b60056020526000908152604090205481565b6102066102b8366004610cff565b6107d2565b3480156102c957600080fd5b506000546102dd906001600160a01b031681565b6040516001600160a01b0390911681526020016101a3565b34801561030157600080fd5b5061020660025481565b34801561031757600080fd5b506103cb610326366004610c57565b6040805160c081018252600080825260208201819052918101829052606081018290526080810182905260a081019190915250600090815260046020908152604091829020825160c08101845281546001600160a01b03168152600182015492810192909252600281015460ff80821615159484019490945261010081048416151560608401526201000090049092161515608082015260039091015460a082015290565b6040516101a3919081516001600160a01b031681526020808301519082015260408083015115159082015260608083015115159082015260808083015115159082015260a0918201519181019190915260c00190565b34801561042d57600080fd5b506101ee610991565b34801561044257600080fd5b5061020660015481565b34801561045857600080fd5b50610206610467366004610c70565b6001600160a01b031660009081526005602052604090205490565b6060600060065467ffffffffffffffff8111156104a1576104a1610d21565b6040519080825280602002602001820160405280156104ca578160200160208202803683370190505b5090506000805b60065481101561053a576000818152600460205260409020546001600160a01b03808716911603610528578083838151811061050f5761050f610d37565b60209081029190910101528161052481610d63565b9250505b8061053281610d63565b9150506104d1565b5060008167ffffffffffffffff81111561055657610556610d21565b60405190808252806020026020018201604052801561057f578160200160208202803683370190505b50905060005b828110156105d65783818151811061059f5761059f610d37565b60200260200101518282815181106105b9576105b9610d37565b6020908102919091010152806105ce81610d63565b915050610585565b50949350505050565b6000546001600160a01b031633146106125760405162461bcd60e51b815260040161060990610d7c565b60405180910390fd5b47806106575760405162461bcd60e51b81526020600482015260146024820152734e6f2066756e647320746f20776974686472617760601b6044820152606401610609565b600080546040516001600160a01b039091169183156108fc02918491818181858888f19350505050158015610690573d6000803e3d6000fd5b506000546040518281526001600160a01b03909116907feaff4b37086828766ad3268786972c0cd24259d4c87a80f9d3963a3c3d999b0d906020015b60405180910390a250565b6000546001600160a01b031633146107015760405162461bcd60e51b815260040161060990610d7c565b600a8111156107485760405162461bcd60e51b8152602060048201526013602482015272090deeae6ca40cac8ceca40e8dede40d0d2ced606b1b6044820152606401610609565b600155565b6000546001600160a01b031633146107775760405162461bcd60e51b815260040161060990610d7c565b60008211801561078657508181115b6107c75760405162461bcd60e51b8152602060048201526012602482015271496e76616c696420626574206c696d69747360701b6044820152606401610609565b600291909155600355565b60003460025481101580156107e957506003548111155b6108355760405162461bcd60e51b815260206004820152601760248201527f42657420616d6f756e74206f7574206f662072616e67650000000000000000006044820152606401610609565b80341461087b5760405162461bcd60e51b8152602060048201526014602482015273125b98dbdc9c9958dd0818995d08185b5bdd5b9d60621b6044820152606401610609565b600680546000918261088c83610d63565b909155506040805160c081018252338082523460208084018281528a1515858701818152600060608801818152608089018281524260a08b019081528c845260048852928b902099518a546001600160a01b0319166001600160a01b03909116178a55945160018a015591516002890180549351955161ffff1990941691151561ff00191691909117610100951515959095029490941762ff000019166201000092151592909202919091179092559051600390950194909455845191825281019290925292935083917faf216e6dc276f1d61180ba02498c6f09466c70c9f30779c9f792d3e8babee317910160405180910390a361098a81610a55565b9392505050565b33600090815260056020526040902054806109e75760405162461bcd60e51b81526020600482015260166024820152754e6f2062616c616e636520746f20776974686472617760501b6044820152606401610609565b336000818152600560205260408082208290555183156108fc0291849190818181858888f19350505050158015610a22573d6000803e3d6000fd5b5060405181815233907fe771cbdc934e8eaff1601563afb99703bf855bf3264bad95f3dce40185e2f3df906020016106cc565b60008181526004602052604090206002810154610100900460ff1615610ab55760405162461bcd60e51b815260206004820152601560248201527411d85b5948185b1c9958591e481c995cdbdb1d9959605a1b6044820152606401610609565b60004244610ac4600143610dbd565b6040805160208101949094528301919091524060608201526080810184905260a00160408051601f19818403018152919052805160209091012090506000610b0d600283610dec565b60028401805461010062ffff0019821660019490941460ff90921615158214620100008102949094171790915591508015610c0657600060646001548660010154610b589190610e00565b610b629190610e17565b905060008186600101546002610b789190610e00565b610b829190610dbd565b86546001600160a01b0316600090815260056020526040812080549293508392909190610bb0908490610e2b565b909155505085546040805160018152602081018490526001600160a01b039092169189917fb563d6137b1ab50ba5b4741f5f1c93795bda1356a119c0fc6a78db4b2ee6c0c3910160405180910390a35050610c50565b835460408051600080825260208201526001600160a01b039092169187917fb563d6137b1ab50ba5b4741f5f1c93795bda1356a119c0fc6a78db4b2ee6c0c3910160405180910390a35b5050505050565b600060208284031215610c6957600080fd5b5035919050565b600060208284031215610c8257600080fd5b81356001600160a01b038116811461098a57600080fd5b6020808252825182820181905260009190848201906040850190845b81811015610cd157835183529284019291840191600101610cb5565b50909695505050505050565b60008060408385031215610cf057600080fd5b50508035926020909101359150565b600060208284031215610d1157600080fd5b8135801515811461098a57600080fd5b634e487b7160e01b600052604160045260246000fd5b634e487b7160e01b600052603260045260246000fd5b634e487b7160e01b600052601160045260246000fd5b600060018201610d7557610d75610d4d565b5060010190565b60208082526021908201527f4f6e6c79206f776e65722063616e2063616c6c20746869732066756e6374696f6040820152603760f91b606082015260800190565b81810381811115610dd057610dd0610d4d565b92915050565b634e487b7160e01b600052601260045260246000fd5b600082610dfb57610dfb610dd6565b500690565b8082028115828204841417610dd057610dd0610d4d565b600082610e2657610e26610dd6565b500490565b80820180821115610dd057610dd0610d4d56fea2646970667358221220bcf20aa134681cd557aa4e18671028338b07fc76261a2293674c5f2255526fa364736f6c63430008130033",
  "linkReferences": {},
  "deployedLinkReferences": {}
}